:100000000C942A000C9453000C947D000C94A700CF
:100010000C943C000C943C000C943C000C942F017C
:100020000C943C000C943C000C943C000C94D300C9
:100030000C943C000C943C000C943C000C943C0050
:100040000C943C000C943C000C943C000C943C0040
:100050000C943C0011241FBECFE5D8E0DEBFCDBF1D
:1000600010E0A0E6B0E001C01D92A836B107E1F7AC
:100070000E943E000C946F020C940000DF93CF931B
:10008000CDB7DEB70E94AF010E949A010E94E00145
:100090000E9436020E9409020E9452028091600072
:1000A0000E942102FBCF1F920F920FB60F921124D4
:1000B0002F933F934F935F936F937F938F939F9370
:1000C000AF93BF93EF93FF93DF93CF93CDB7DEB79B
:1000D0000E945202CF91DF91FF91EF91BF91AF91BA
:1000E0009F918F917F916F915F914F913F912F9150
:1000F0000F900FBE0F901F9018951F920F920FB682
:100100000F9211242F933F934F935F936F937F939D
:100110008F939F93AF93BF93EF93FF93DF93CF930F
:10012000CDB7DEB70E941702CF91DF91FF91EF911B
:10013000BF91AF919F918F917F916F915F914F91FF
:100140003F912F910F900FBE0F901F9018951F9207
:100150000F920FB60F9211242F933F934F935F93FB
:100160006F937F938F939F93AF93BF93EF93FF937F
:10017000DF93CF93CDB7DEB70E94E0010E94090262
:10018000CF91DF91FF91EF91BF91AF919F918F91AF
:100190007F916F915F914F913F912F910F900FBE83
:1001A0000F901F9018951F920F920FB60F92112467
:1001B0002F933F934F938F939F93AF93BF93EF935F
:1001C000FF93DF93CF93CDB7DEB77894ABE3B0E086
:1001D000EBE3F0E08081482F80916100282F30E030
:1001E00081E090E0022E02C0880F991F0A94E2F786
:1001F000809584238C9380916100863030F48091C7
:1002000061008F5F8093610002C010926100809155
:100210006100882F90E0FC01EE59FF4F80818093B0
:100220006000EBE3F0E080916100282F30E081E096
:1002300090E002C0880F991F2A95E2F78083CF9142
:10024000DF91FF91EF91BF91AF919F918F914F916E
:100250003F912F910F900FBE0F901F9018951F92F6
:100260000F920FB60F9211242F933F934F935F93EA
:100270006F937F938F939F93AF93BF93EF93FF936E
:10028000DF93CF93CDB7DEB77894809162008F5F14
:1002900080936200809162008A3039F4809163001B
:1002A0008F5F8093630010926200809163008630BC
:1002B00039F410926300809164008F5F8093640032
:1002C000809164008A3039F4109264008091650056
:1002D0008F5F8093650080916500863039F480914E
:1002E00066008F5F809366001092650080916600C3
:1002F0008A3039F410926600809167008F5F809396
:100300006700809167008A3011F40E945202CF91F9
:10031000DF91FF91EF91BF91AF919F918F917F916D
:100320006F915F914F913F912F910F900FBE0F9062
:100330001F901895DF93CF93CDB7DEB7A4E3B0E05D
:10034000E4E3F0E080818F608C93AAE3B0E0EAE31D
:10035000F0E080818F638C93CF91DF910895DF93DC
:10036000CF93CDB7DEB7AFE5B0E0EFE5F0E0808149
:1003700080688C93ABE5B0E0EBE5F0E08081806EC7
:100380008C93A5E5B0E0E5E5F0E080818E608C938C
:10039000A4E5B0E0E4E5F0E080818F7B8C93A1E3FD
:1003A000B0E0E1E3F0E08081837F8C93A7E3B0E0ED
:1003B000E7E3F0E080818B7F8C93CF91DF9108950C
:1003C000DF93CF93CDB7DEB7AFE4B0E0EFE4F0E07A
:1003D000808188608C93AEE4B0E0EEE4F0E0808150
:1003E00088608C93A9E5B0E0E9E5F0E08081806168
:1003F0008C93EAE4F0E081ED93E091838083AFE5B4
:10040000B0E0EFE5F0E0808180688C93CF91DF91E0
:100410000895DF93CF93CDB7DEB7AEE4B0E0EEE45E
:10042000F0E0808185608C93CF91DF910895DF9318
:10043000CF93CDB7DEB7EEE4F0E01082CF91DF913D
:100440000895DF93CF930F92CDB7DEB78983A5E3ED
:10045000B0E0E5E3F0E08081982F907C89818F7394
:10046000892B8C930F90CF91DF910895DF93CF93D9
:10047000CDB7DEB7E2E5F0E01082E3E5F0E082E838
:100480008083A9E5B0E0E9E5F0E0808181608C93AC
:10049000AFE5B0E0EFE5F0E0808180688C93CF912C
:1004A000DF910895DF93CF9300D0CDB7DEB71A82E6
:1004B00019820BC089819A81FC01EE59FF4F10828D
:1004C00089819A8101969A83898389819A8186306C
:1004D000910584F30F900F90CF91DF910895F894D8
:0204E000FFCF4C
:00000001FF
